{
  "contractName": "Calculator",
  "abi": [
    {
      "inputs": [
        {
          "internalType": "uint256",
          "name": "height",
          "type": "uint256"
        },
        {
          "internalType": "uint256",
          "name": "width",
          "type": "uint256"
        },
        {
          "internalType": "uint256",
          "name": "pricePerSquareInch",
          "type": "uint256"
        }
      ],
      "name": "calculatePrice",
      "outputs": [
        {
          "internalType": "uint256",
          "name": "",
          "type": "uint256"
        }
      ],
      "stateMutability": "pure",
      "type": "function",
      "constant": true
    }
  ],
  "bytecode": "0x608060405234801561001057600080fd5b506101fe806100206000396000f3fe608060405234801561001057600080fd5b506004361061002b5760003560e01c8063e015c62a14610030575b600080fd5b61004a600480360381019061004591906100c2565b610060565b6040516100579190610124565b60405180910390f35b600080828486610070919061016e565b61007a919061016e565b9050809150509392505050565b600080fd5b6000819050919050565b61009f8161008c565b81146100aa57600080fd5b50565b6000813590506100bc81610096565b92915050565b6000806000606084860312156100db576100da610087565b5b60006100e9868287016100ad565b93505060206100fa868287016100ad565b925050604061010b868287016100ad565b9150509250925092565b61011e8161008c565b82525050565b60006020820190506101396000830184610115565b92915050565b7f4e487b7100000000000000000000000000000000000000000000000000000000600052601160045260246000fd5b60006101798261008c565b91506101848361008c565b9250817fffffffffffffffffffffffffffffffffffffffffffffffffffffffffffffffff04831182151516156101bd576101bc61013f565b5b82820290509291505056fea2646970667358221220bcb8707357ad899d868f5a18681f087d4e43e5062a414b92cba4788ca73511f864736f6c634300080d0033",
  "immutableReferences": {},
  "source": "//SPDX-License-Identifier: UNLICENSED\r\npragma solidity ^0.8.13;\r\n\r\n//create contract\r\ncontract Calculator {\r\n\r\n    //create function to calculate price per square inch of canvas and return a value\r\n    function calculatePrice(uint height, uint width, uint pricePerSquareInch) public pure returns (uint){\r\n        uint finalPrice = (height * width) * pricePerSquareInch;\r\n        \r\n        //return final price value\r\n        return finalPrice;\r\n    }\r\n}",
  "sourcePath": "E:\\Project Workspace\\canvas-pricing-app\\canvas-price-calculator\\contracts\\Calculator.sol",
  "compiler": {
    "name": "solc",
    "version": "0.8.13+commit.abaa5c0e.Emscripten.clang"
  },
  "schemaVersion": "3.4.7",
  "updatedAt": "2022-04-20T20:23:44.215Z",
  "networkType": "ethereum",
  "devdoc": {
    "kind": "dev",
    "methods": {},
    "version": 1
  },
  "userdoc": {
    "kind": "user",
    "methods": {},
    "version": 1
  }
}